{
	"data": {
		"bytecode": {
			"linkReferences": {},
			"object": "608060405234801561001057600080fd5b5060da8061001f6000396000f3fe608060405260043610601c5760003560e01c806313765838146021575b600080fd5b6037600480360381019060339190604f565b6039565b005b50565b6000813590506049816090565b92915050565b6000602082840312156062576061608b565b5b6000606e84828501603c565b91505092915050565b600067ffffffffffffffff82169050919050565b600080fd5b6097816077565b811460a157600080fd5b5056fea2646970667358221220449108c23be482fc17865658b47b8a4fc4e1a5c9b5aa925317160b0c2b46960864736f6c63430008070033",
			"opcodes": "PUSH1 0x80 PUSH1 0x40 MSTORE CALLVALUE DUP1 ISZERO PUSH2 0x10 JUMPI PUSH1 0x0 DUP1 REVERT JUMPDEST POP PUSH1 0xDA DUP1 PUSH2 0x1F PUSH1 0x0 CODECOPY PUSH1 0x0 RETURN INVALID PUSH1 0x80 PUSH1 0x40 MSTORE PUSH1 0x4 CALLDATASIZE LT PUSH1 0x1C JUMPI PUSH1 0x0 CALLDATALOAD PUSH1 0xE0 SHR DUP1 PUSH4 0x13765838 EQ PUSH1 0x21 JUMPI JUMPDEST PUSH1 0x0 DUP1 REVERT JUMPDEST PUSH1 0x37 PUSH1 0x4 DUP1 CALLDATASIZE SUB DUP2 ADD SWAP1 PUSH1 0x33 SWAP2 SWAP1 PUSH1 0x4F JUMP JUMPDEST PUSH1 0x39 JUMP JUMPDEST STOP JUMPDEST POP JUMP JUMPDEST PUSH1 0x0 DUP2 CALLDATALOAD SWAP1 POP PUSH1 0x49 DUP2 PUSH1 0x90 JUMP JUMPDEST SWAP3 SWAP2 POP POP JUMP JUMPDEST PUSH1 0x0 PUSH1 0x20 DUP3 DUP5 SUB SLT ISZERO PUSH1 0x62 JUMPI PUSH1 0x61 PUSH1 0x8B JUMP JUMPDEST JUMPDEST PUSH1 0x0 PUSH1 0x6E DUP5 DUP3 DUP6 ADD PUSH1 0x3C JUMP JUMPDEST SWAP2 POP POP SWAP3 SWAP2 POP POP JUMP JUMPDEST PUSH1 0x0 PUSH8 0xFFFFFFFFFFFFFFFF DUP3 AND SWAP1 POP SWAP2 SWAP1 POP JUMP JUMPDEST PUSH1 0x0 DUP1 REVERT JUMPDEST PUSH1 0x97 DUP2 PUSH1 0x77 JUMP JUMPDEST DUP2 EQ PUSH1 0xA1 JUMPI PUSH1 0x0 DUP1 REVERT JUMPDEST POP JUMP INVALID LOG2 PUSH5 0x6970667358 0x22 SLT KECCAK256 DIFFICULTY SWAP2 ADDMOD 0xC2 EXTCODESIZE 0xE4 DUP3 0xFC OR DUP7 JUMP PC 0xB4 PUSH28 0x8A4FC4E1A5C9B5AA925317160B0C2B46960864736F6C634300080700 CALLER "
		},
		"gasEstimates": {
			"creation": {
				"codeDepositCost": "43600",
				"executionCost": "93",
				"totalCost": "43693"
			},
			"external": {
				"deposit(uint64)": "366"
			}
		},
		"methodIdentifiers": {
			"deposit(uint64)": "13765838"
		}
	},
	"abi": [
		{
			"anonymous": false,
			"inputs": [
				{
					"indexed": true,
					"internalType": "address",
					"name": "_from",
					"type": "address"
				},
				{
					"indexed": true,
					"internalType": "uint64",
					"name": "_id",
					"type": "uint64"
				},
				{
					"indexed": false,
					"internalType": "uint256",
					"name": "_value",
					"type": "uint256"
				}
			],
			"name": "Deposit",
			"type": "event"
		},
		{
			"inputs": [
				{
					"internalType": "uint64",
					"name": "_id",
					"type": "uint64"
				}
			],
			"name": "deposit",
			"outputs": [],
			"stateMutability": "payable",
			"type": "function"
		}
	]
}